{
    "contractName": "Hello",
    "abi": [
        {
            "inputs": [],
            "name": "a",
            "outputs": [
                {
                    "internalType": "uint256",
                    "name": "",
                    "type": "uint256"
                }
            ],
            "stateMutability": "view",
            "type": "function"
        },
        {
            "inputs": [],
            "name": "hi",
            "outputs": [
                {
                    "internalType": "string",
                    "name": "",
                    "type": "string"
                }
            ],
            "stateMutability": "view",
            "type": "function"
        },
        {
            "inputs": [
                {
                    "internalType": "uint256",
                    "name": "value",
                    "type": "uint256"
                }
            ],
            "name": "setA1",
            "outputs": [
                {
                    "internalType": "uint256",
                    "name": "",
                    "type": "uint256"
                }
            ],
            "stateMutability": "nonpayable",
            "type": "function"
        }
    ],
    "bytecode": "60c0604052600e60808190526d48656c6c6f20736f6c696469747960901b60a090815261002f9160009190610047565b50600360015534801561004157600080fd5b506100da565b828054600181600116156101000203166002900490600052602060002090601f016020900481019282601f1061008857805160ff19168380011785556100b5565b828001600101855582156100b5579182015b828111156100b557825182559160200191906001019061009a565b506100c19291506100c5565b5090565b5b808211156100c157600081556001016100c6565b6101cc806100e96000396000f3fe608060405234801561001057600080fd5b50600436106100415760003560e01c80630dbe671f146100465780633696586c14610060578063a99dca3f1461007d575b600080fd5b61004e6100fa565b60408051918252519081900360200190f35b61004e6004803603602081101561007657600080fd5b5035610100565b610085610108565b6040805160208082528351818301528351919283929083019185019080838360005b838110156100bf5781810151838201526020016100a7565b50505050905090810190601f1680156100ec5780820380516001836020036101000a031916815260200191505b509250505060405180910390f35b60015481565b600181905590565b6000805460408051602060026001851615610100026000190190941693909304601f8101849004840282018401909252818152929183018282801561018e5780601f106101635761010080835404028352916020019161018e565b820191906000526020600020905b81548152906001019060200180831161017157829003601f168201915b50505050508156fea264697066735822122038a581227e667c81498a240cd5f104cce54f2c01818298242b646826596dc2f164736f6c63430007000033",
    "sourcePath": "/Users/piyoung/workspaces/sleepy-wood/test-nft/contracts/Contract.sol",
    "compiler": {
        "name": "solc",
        "version": "0.7.0+commit.9e61f92b"
    },
    "functionHashes": {
        "a()": "0dbe671f",
        "hi()": "a99dca3f",
        "setA1(uint256)": "3696586c"
    },
    "gasEstimates": {
        "creation": {
            "codeDepositCost": "92000",
            "executionCost": "infinite",
            "totalCost": "infinite"
        },
        "external": {
            "a()": "976",
            "hi()": "infinite",
            "setA1(uint256)": "20246"
        }
    }
}